{
  "_format": "hh-sol-artifact-1",
  "contractName": "MemberNFT",
  "sourceName": "contracts/MemberNFT.sol",
  "abi": [
    {
      "inputs": [],
      "stateMutability": "nonpayable",
      "type": "constructor"
    },
    {
      "anonymous": false,
      "inputs": [
        {
          "indexed": true,
          "internalType": "address",
          "name": "owner",
          "type": "address"
        },
        {
          "indexed": true,
          "internalType": "address",
          "name": "approved",
          "type": "address"
        },
        {
          "indexed": true,
          "internalType": "uint256",
          "name": "tokenId",
          "type": "uint256"
        }
      ],
      "name": "Approval",
      "type": "event"
    },
    {
      "anonymous": false,
      "inputs": [
        {
          "indexed": true,
          "internalType": "address",
          "name": "owner",
          "type": "address"
        },
        {
          "indexed": true,
          "internalType": "address",
          "name": "operator",
          "type": "address"
        },
        {
          "indexed": false,
          "internalType": "bool",
          "name": "approved",
          "type": "bool"
        }
      ],
      "name": "ApprovalForAll",
      "type": "event"
    },
    {
      "anonymous": false,
      "inputs": [
        {
          "indexed": true,
          "internalType": "address",
          "name": "previousOwner",
          "type": "address"
        },
        {
          "indexed": true,
          "internalType": "address",
          "name": "newOwner",
          "type": "address"
        }
      ],
      "name": "OwnershipTransferred",
      "type": "event"
    },
    {
      "anonymous": false,
      "inputs": [
        {
          "indexed": true,
          "internalType": "address",
          "name": "to",
          "type": "address"
        },
        {
          "indexed": true,
          "internalType": "uint256",
          "name": "tokenId",
          "type": "uint256"
        }
      ],
      "name": "TokenURIChanged",
      "type": "event"
    },
    {
      "anonymous": false,
      "inputs": [
        {
          "indexed": true,
          "internalType": "address",
          "name": "from",
          "type": "address"
        },
        {
          "indexed": true,
          "internalType": "address",
          "name": "to",
          "type": "address"
        },
        {
          "indexed": true,
          "internalType": "uint256",
          "name": "tokenId",
          "type": "uint256"
        }
      ],
      "name": "Transfer",
      "type": "event"
    },
    {
      "inputs": [
        {
          "internalType": "address",
          "name": "to",
          "type": "address"
        },
        {
          "internalType": "uint256",
          "name": "tokenId",
          "type": "uint256"
        }
      ],
      "name": "approve",
      "outputs": [],
      "stateMutability": "nonpayable",
      "type": "function"
    },
    {
      "inputs": [
        {
          "internalType": "address",
          "name": "owner",
          "type": "address"
        }
      ],
      "name": "balanceOf",
      "outputs": [
        {
          "internalType": "uint256",
          "name": "",
          "type": "uint256"
        }
      ],
      "stateMutability": "view",
      "type": "function"
    },
    {
      "inputs": [
        {
          "internalType": "uint256",
          "name": "",
          "type": "uint256"
        }
      ],
      "name": "colors",
      "outputs": [
        {
          "internalType": "string",
          "name": "name",
          "type": "string"
        },
        {
          "internalType": "string",
          "name": "code",
          "type": "string"
        }
      ],
      "stateMutability": "view",
      "type": "function"
    },
    {
      "inputs": [
        {
          "internalType": "uint256",
          "name": "tokenId",
          "type": "uint256"
        }
      ],
      "name": "getApproved",
      "outputs": [
        {
          "internalType": "address",
          "name": "",
          "type": "address"
        }
      ],
      "stateMutability": "view",
      "type": "function"
    },
    {
      "inputs": [
        {
          "internalType": "address",
          "name": "owner",
          "type": "address"
        },
        {
          "internalType": "address",
          "name": "operator",
          "type": "address"
        }
      ],
      "name": "isApprovedForAll",
      "outputs": [
        {
          "internalType": "bool",
          "name": "",
          "type": "bool"
        }
      ],
      "stateMutability": "view",
      "type": "function"
    },
    {
      "inputs": [],
      "name": "name",
      "outputs": [
        {
          "internalType": "string",
          "name": "",
          "type": "string"
        }
      ],
      "stateMutability": "view",
      "type": "function"
    },
    {
      "inputs": [
        {
          "internalType": "address",
          "name": "to",
          "type": "address"
        }
      ],
      "name": "nftMint",
      "outputs": [],
      "stateMutability": "nonpayable",
      "type": "function"
    },
    {
      "inputs": [],
      "name": "owner",
      "outputs": [
        {
          "internalType": "address",
          "name": "",
          "type": "address"
        }
      ],
      "stateMutability": "view",
      "type": "function"
    },
    {
      "inputs": [
        {
          "internalType": "uint256",
          "name": "tokenId",
          "type": "uint256"
        }
      ],
      "name": "ownerOf",
      "outputs": [
        {
          "internalType": "address",
          "name": "",
          "type": "address"
        }
      ],
      "stateMutability": "view",
      "type": "function"
    },
    {
      "inputs": [],
      "name": "renounceOwnership",
      "outputs": [],
      "stateMutability": "nonpayable",
      "type": "function"
    },
    {
      "inputs": [
        {
          "internalType": "address",
          "name": "from",
          "type": "address"
        },
        {
          "internalType": "address",
          "name": "to",
          "type": "address"
        },
        {
          "internalType": "uint256",
          "name": "tokenId",
          "type": "uint256"
        }
      ],
      "name": "safeTransferFrom",
      "outputs": [],
      "stateMutability": "nonpayable",
      "type": "function"
    },
    {
      "inputs": [
        {
          "internalType": "address",
          "name": "from",
          "type": "address"
        },
        {
          "internalType": "address",
          "name": "to",
          "type": "address"
        },
        {
          "internalType": "uint256",
          "name": "tokenId",
          "type": "uint256"
        },
        {
          "internalType": "bytes",
          "name": "data",
          "type": "bytes"
        }
      ],
      "name": "safeTransferFrom",
      "outputs": [],
      "stateMutability": "nonpayable",
      "type": "function"
    },
    {
      "inputs": [
        {
          "internalType": "address",
          "name": "operator",
          "type": "address"
        },
        {
          "internalType": "bool",
          "name": "approved",
          "type": "bool"
        }
      ],
      "name": "setApprovalForAll",
      "outputs": [],
      "stateMutability": "nonpayable",
      "type": "function"
    },
    {
      "inputs": [
        {
          "internalType": "bytes4",
          "name": "interfaceId",
          "type": "bytes4"
        }
      ],
      "name": "supportsInterface",
      "outputs": [
        {
          "internalType": "bool",
          "name": "",
          "type": "bool"
        }
      ],
      "stateMutability": "view",
      "type": "function"
    },
    {
      "inputs": [],
      "name": "symbol",
      "outputs": [
        {
          "internalType": "string",
          "name": "",
          "type": "string"
        }
      ],
      "stateMutability": "view",
      "type": "function"
    },
    {
      "inputs": [
        {
          "internalType": "uint256",
          "name": "index",
          "type": "uint256"
        }
      ],
      "name": "tokenByIndex",
      "outputs": [
        {
          "internalType": "uint256",
          "name": "",
          "type": "uint256"
        }
      ],
      "stateMutability": "view",
      "type": "function"
    },
    {
      "inputs": [
        {
          "internalType": "address",
          "name": "owner",
          "type": "address"
        },
        {
          "internalType": "uint256",
          "name": "index",
          "type": "uint256"
        }
      ],
      "name": "tokenOfOwnerByIndex",
      "outputs": [
        {
          "internalType": "uint256",
          "name": "",
          "type": "uint256"
        }
      ],
      "stateMutability": "view",
      "type": "function"
    },
    {
      "inputs": [
        {
          "internalType": "uint256",
          "name": "tokenId",
          "type": "uint256"
        }
      ],
      "name": "tokenURI",
      "outputs": [
        {
          "internalType": "string",
          "name": "",
          "type": "string"
        }
      ],
      "stateMutability": "view",
      "type": "function"
    },
    {
      "inputs": [],
      "name": "totalSupply",
      "outputs": [
        {
          "internalType": "uint256",
          "name": "",
          "type": "uint256"
        }
      ],
      "stateMutability": "view",
      "type": "function"
    },
    {
      "inputs": [
        {
          "internalType": "address",
          "name": "from",
          "type": "address"
        },
        {
          "internalType": "address",
          "name": "to",
          "type": "address"
        },
        {
          "internalType": "uint256",
          "name": "tokenId",
          "type": "uint256"
        }
      ],
      "name": "transferFrom",
      "outputs": [],
      "stateMutability": "nonpayable",
      "type": "function"
    },
    {
      "inputs": [
        {
          "internalType": "address",
          "name": "newOwner",
          "type": "address"
        }
      ],
      "name": "transferOwnership",
      "outputs": [],
      "stateMutability": "nonpayable",
      "type": "function"
    }
  ],
  "bytecode": "0x60806040523480156200001157600080fd5b506040518060400160405280600981526020017f4d656d6265724e465400000000000000000000000000000000000000000000008152506040518060400160405280600381526020017f4d454d000000000000000000000000000000000000000000000000000000000081525081600090805190602001906200009692919062000aca565b508060019080519060200190620000af92919062000aca565b505050620000d2620000c6620009fc60201b60201c565b62000a0460201b60201c565b600d60405180604001604052806040518060400160405280600681526020017f59656c6c6f77000000000000000000000000000000000000000000000000000081525081526020016040518060400160405280600781526020017f2366666666303000000000000000000000000000000000000000000000000000815250815250908060018154018082558091505060019003906000526020600020906002020160009091909190915060008201518160000190805190602001906200019a92919062000aca565b506020820151816001019080519060200190620001b992919062000aca565b505050600d60405180604001604052806040518060400160405280600a81526020017f5768697465736d6f6b650000000000000000000000000000000000000000000081525081526020016040518060400160405280600781526020017f2366356635663500000000000000000000000000000000000000000000000000815250815250908060018154018082558091505060019003906000526020600020906002020160009091909190915060008201518160000190805190602001906200028492919062000aca565b506020820151816001019080519060200190620002a392919062000aca565b505050600d60405180604001604052806040518060400160405280600481526020017f426c75650000000000000000000000000000000000000000000000000000000081525081526020016040518060400160405280600781526020017f2330303030666600000000000000000000000000000000000000000000000000815250815250908060018154018082558091505060019003906000526020600020906002020160009091909190915060008201518160000190805190602001906200036e92919062000aca565b5060208201518160010190805190602001906200038d92919062000aca565b505050600d60405180604001604052806040518060400160405280600481526020017f50696e6b0000000000000000000000000000000000000000000000000000000081525081526020016040518060400160405280600781526020017f2366666330636200000000000000000000000000000000000000000000000000815250815250908060018154018082558091505060019003906000526020600020906002020160009091909190915060008201518160000190805190602001906200045892919062000aca565b5060208201518160010190805190602001906200047792919062000aca565b505050600d60405180604001604052806040518060400160405280600581526020017f477265656e00000000000000000000000000000000000000000000000000000081525081526020016040518060400160405280600781526020017f2330303830303000000000000000000000000000000000000000000000000000815250815250908060018154018082558091505060019003906000526020600020906002020160009091909190915060008201518160000190805190602001906200054292919062000aca565b5060208201518160010190805190602001906200056192919062000aca565b505050600d60405180604001604052806040518060400160405280600481526020017f476f6c640000000000000000000000000000000000000000000000000000000081525081526020016040518060400160405280600781526020017f2346464437303000000000000000000000000000000000000000000000000000815250815250908060018154018082558091505060019003906000526020600020906002020160009091909190915060008201518160000190805190602001906200062c92919062000aca565b5060208201518160010190805190602001906200064b92919062000aca565b505050600d60405180604001604052806040518060400160405280600681526020017f507572706c65000000000000000000000000000000000000000000000000000081525081526020016040518060400160405280600781526020017f2338303030383000000000000000000000000000000000000000000000000000815250815250908060018154018082558091505060019003906000526020600020906002020160009091909190915060008201518160000190805190602001906200071692919062000aca565b5060208201518160010190805190602001906200073592919062000aca565b505050600d60405180604001604052806040518060400160405280600b81526020017f4c6967687420477265656e00000000000000000000000000000000000000000081525081526020016040518060400160405280600781526020017f2339304545393000000000000000000000000000000000000000000000000000815250815250908060018154018082558091505060019003906000526020600020906002020160009091909190915060008201518160000190805190602001906200080092919062000aca565b5060208201518160010190805190602001906200081f92919062000aca565b505050600d60405180604001604052806040518060400160405280600681526020017f4f72616e6765000000000000000000000000000000000000000000000000000081525081526020016040518060400160405280600781526020017f234646413530300000000000000000000000000000000000000000000000000081525081525090806001815401808255809150506001900390600052602060002090600202016000909190919091506000820151816000019080519060200190620008ea92919062000aca565b5060208201518160010190805190602001906200090992919062000aca565b505050600d60405180604001604052806040518060400160405280600481526020017f477261790000000000000000000000000000000000000000000000000000000081525081526020016040518060400160405280600781526020017f233830383038300000000000000000000000000000000000000000000000000081525081525090806001815401808255809150506001900390600052602060002090600202016000909190919091506000820151816000019080519060200190620009d492919062000aca565b506020820151816001019080519060200190620009f392919062000aca565b50505062000bdf565b600033905090565b6000600b60009054906101000a900473ffffffffffffffffffffffffffffffffffffffff16905081600b60006101000a81548173ffffffffffffffffffffffffffffffffffffffff021916908373ffffffffffffffffffffffffffffffffffffffff1602179055508173ffffffffffffffffffffffffffffffffffffffff168173ffffffffffffffffffffffffffffffffffffffff167f8be0079c531659141344cd1fd0a4f28419497f9722a3daafe3b4186f6b6457e060405160405180910390a35050565b82805462000ad89062000ba9565b90600052602060002090601f01602090048101928262000afc576000855562000b48565b82601f1062000b1757805160ff191683800117855562000b48565b8280016001018555821562000b48579182015b8281111562000b4757825182559160200191906001019062000b2a565b5b50905062000b57919062000b5b565b5090565b5b8082111562000b7657600081600090555060010162000b5c565b5090565b7f4e487b7100000000000000000000000000000000000000000000000000000000600052602260045260246000fd5b6000600282049050600182168062000bc257607f821691505b6020821081141562000bd95762000bd862000b7a565b5b50919050565b614f538062000bef6000396000f3fe608060405234801561001057600080fd5b50600436106101375760003560e01c806370a08231116100b8578063b88d4fde1161007c578063b88d4fde1461034e578063bd11f69d1461036a578063c87b56dd1461039b578063ca15f585146103cb578063e985e9c5146103e7578063f2fde38b1461041757610137565b806370a08231146102bc578063715018a6146102ec5780638da5cb5b146102f657806395d89b4114610314578063a22cb4651461033257610137565b806323b872dd116100ff57806323b872dd146101f45780632f745c591461021057806342842e0e146102405780634f6ccce71461025c5780636352211e1461028c57610137565b806301ffc9a71461013c57806306fdde031461016c578063081812fc1461018a578063095ea7b3146101ba57806318160ddd146101d6575b600080fd5b610156600480360381019061015191906126b8565b610433565b6040516101639190612700565b60405180910390f35b610174610445565b60405161018191906127b4565b60405180910390f35b6101a4600480360381019061019f919061280c565b6104d7565b6040516101b1919061287a565b60405180910390f35b6101d460048036038101906101cf91906128c1565b61051d565b005b6101de610635565b6040516101eb9190612910565b60405180910390f35b61020e6004803603810190610209919061292b565b610642565b005b61022a600480360381019061022591906128c1565b6106a2565b6040516102379190612910565b60405180910390f35b61025a6004803603810190610255919061292b565b610747565b005b6102766004803603810190610271919061280c565b610767565b6040516102839190612910565b60405180910390f35b6102a660048036038101906102a1919061280c565b6107d8565b6040516102b3919061287a565b60405180910390f35b6102d660048036038101906102d1919061297e565b61088a565b6040516102e39190612910565b60405180910390f35b6102f4610942565b005b6102fe610956565b60405161030b919061287a565b60405180910390f35b61031c610980565b60405161032991906127b4565b60405180910390f35b61034c600480360381019061034791906129d7565b610a12565b005b61036860048036038101906103639190612b4c565b610a28565b005b610384600480360381019061037f919061280c565b610a8a565b604051610392929190612bcf565b60405180910390f35b6103b560048036038101906103b0919061280c565b610bce565b6040516103c291906127b4565b60405180910390f35b6103e560048036038101906103e0919061297e565b610be0565b005b61040160048036038101906103fc9190612c06565b610e68565b60405161040e9190612700565b60405180910390f35b610431600480360381019061042c919061297e565b610efc565b005b600061043e82610f80565b9050919050565b60606000805461045490612c75565b80601f016020809104026020016040519081016040528092919081815260200182805461048090612c75565b80156104cd5780601f106104a2576101008083540402835291602001916104cd565b820191906000526020600020905b8154815290600101906020018083116104b057829003601f168201915b5050505050905090565b60006104e282610ffa565b6004600083815260200190815260200160002060009054906101000a900473ffffffffffffffffffffffffffffffffffffffff169050919050565b6000610528826107d8565b90508073ffffffffffffffffffffffffffffffffffffffff168373ffffffffffffffffffffffffffffffffffffffff161415610599576040517f08c379a000000000000000000000000000000000000000000000000000000000815260040161059090612d19565b60405180910390fd5b8073ffffffffffffffffffffffffffffffffffffffff166105b8611045565b73ffffffffffffffffffffffffffffffffffffffff1614806105e757506105e6816105e1611045565b610e68565b5b610626576040517f08c379a000000000000000000000000000000000000000000000000000000000815260040161061d90612dab565b60405180910390fd5b610630838361104d565b505050565b6000600880549050905090565b61065361064d611045565b82611106565b610692576040517f08c379a000000000000000000000000000000000000000000000000000000000815260040161068990612e3d565b60405180910390fd5b61069d83838361119b565b505050565b60006106ad8361088a565b82106106ee576040517f08c379a00000000000000000000000000000000000000000000000000000000081526004016106e590612ecf565b60405180910390fd5b600660008473ffffffffffffffffffffffffffffffffffffffff1673ffffffffffffffffffffffffffffffffffffffff168152602001908152602001600020600083815260200190815260200160002054905092915050565b61076283838360405180602001604052806000815250610a28565b505050565b6000610771610635565b82106107b2576040517f08c379a00000000000000000000000000000000000000000000000000000000081526004016107a990612f61565b60405180910390fd5b600882815481106107c6576107c5612f81565b5b90600052602060002001549050919050565b6000806002600084815260200190815260200160002060009054906101000a900473ffffffffffffffffffffffffffffffffffffffff169050600073ffffffffffffffffffffffffffffffffffffffff168173ffffffffffffffffffffffffffffffffffffffff161415610881576040517f08c379a000000000000000000000000000000000000000000000000000000000815260040161087890612ffc565b60405180910390fd5b80915050919050565b60008073ffffffffffffffffffffffffffffffffffffffff168273ffffffffffffffffffffffffffffffffffffffff1614156108fb576040517f08c379a00000000000000000000000000000000000000000000000000000000081526004016108f29061308e565b60405180910390fd5b600360008373ffffffffffffffffffffffffffffffffffffffff1673ffffffffffffffffffffffffffffffffffffffff168152602001908152602001600020549050919050565b61094a611402565b6109546000611480565b565b6000600b60009054906101000a900473ffffffffffffffffffffffffffffffffffffffff16905090565b60606001805461098f90612c75565b80601f01602080910402602001604051908101604052809291908181526020018280546109bb90612c75565b8015610a085780601f106109dd57610100808354040283529160200191610a08565b820191906000526020600020905b8154815290600101906020018083116109eb57829003601f168201915b5050505050905090565b610a24610a1d611045565b8383611546565b5050565b610a39610a33611045565b83611106565b610a78576040517f08c379a0000000000000000000000000000000000000000000000000000000008152600401610a6f90612e3d565b60405180910390fd5b610a84848484846116b3565b50505050565b600d8181548110610a9a57600080fd5b9060005260206000209060020201600091509050806000018054610abd90612c75565b80601f0160208091040260200160405190810160405280929190818152602001828054610ae990612c75565b8015610b365780601f10610b0b57610100808354040283529160200191610b36565b820191906000526020600020905b815481529060010190602001808311610b1957829003601f168201915b505050505090806001018054610b4b90612c75565b80601f0160208091040260200160405190810160405280929190818152602001828054610b7790612c75565b8015610bc45780601f10610b9957610100808354040283529160200191610bc4565b820191906000526020600020905b815481529060010190602001808311610ba757829003601f168201915b5050505050905082565b6060610bd98261170f565b9050919050565b610be8611402565b610bf2600c611822565b6000610bfe600c611838565b905060008142604051602001610c159291906130cf565b6040516020818303038152906040528051906020012090506000600d80805490508360001c610c44919061312a565b81548110610c5557610c54612f81565b5b9060005260206000209060020201604051806040016040529081600082018054610c7e90612c75565b80601f0160208091040260200160405190810160405280929190818152602001828054610caa90612c75565b8015610cf75780601f10610ccc57610100808354040283529160200191610cf7565b820191906000526020600020905b815481529060010190602001808311610cda57829003601f168201915b50505050508152602001600182018054610d1090612c75565b80601f0160208091040260200160405190810160405280929190818152602001828054610d3c90612c75565b8015610d895780601f10610d5e57610100808354040283529160200191610d89565b820191906000526020600020905b815481529060010190602001808311610d6c57829003601f168201915b50505050508152505090506000610da38260200151611846565b90506000610db085611871565b610db9836119d2565b604051602001610dca929190613339565b60405160208183030381529060405290506000610de6826119d2565b604051602001610df691906133e0565b6040516020818303038152906040529050610e118787611b36565b610e1b8682611d10565b858773ffffffffffffffffffffffffffffffffffffffff167fffd63553a6e755b58b8ef6463c0943f21da128760db6b6680cb08bdd2550ffbf60405160405180910390a350505050505050565b6000600560008473ffffffffffffffffffffffffffffffffffffffff1673ffffffffffffffffffffffffffffffffffffffff16815260200190815260200160002060008373ffffffffffffffffffffffffffffffffffffffff1673ffffffffffffffffffffffffffffffffffffffff16815260200190815260200160002060009054906101000a900460ff16905092915050565b610f04611402565b600073ffffffffffffffffffffffffffffffffffffffff168173ffffffffffffffffffffffffffffffffffffffff161415610f74576040517f08c379a0000000000000000000000000000000000000000000000000000000008152600401610f6b90613474565b60405180910390fd5b610f7d81611480565b50565b60007f780e9d63000000000000000000000000000000000000000000000000000000007bffffffffffffffffffffffffffffffffffffffffffffffffffffffff1916827bffffffffffffffffffffffffffffffffffffffffffffffffffffffff19161480610ff35750610ff282611d84565b5b9050919050565b61100381611e66565b611042576040517f08c379a000000000000000000000000000000000000000000000000000000000815260040161103990612ffc565b60405180910390fd5b50565b600033905090565b816004600083815260200190815260200160002060006101000a81548173ffffffffffffffffffffffffffffffffffffffff021916908373ffffffffffffffffffffffffffffffffffffffff160217905550808273ffffffffffffffffffffffffffffffffffffffff166110c0836107d8565b73ffffffffffffffffffffffffffffffffffffffff167f8c5be1e5ebec7d5bd14f71427d1e84f3dd0314c0f7b2291e5b200ac8c7c3b92560405160405180910390a45050565b600080611112836107d8565b90508073ffffffffffffffffffffffffffffffffffffffff168473ffffffffffffffffffffffffffffffffffffffff16148061115457506111538185610e68565b5b8061119257508373ffffffffffffffffffffffffffffffffffffffff1661117a846104d7565b73ffffffffffffffffffffffffffffffffffffffff16145b91505092915050565b8273ffffffffffffffffffffffffffffffffffffffff166111bb826107d8565b73ffffffffffffffffffffffffffffffffffffffff1614611211576040517f08c379a000000000000000000000000000000000000000000000000000000000815260040161120890613506565b60405180910390fd5b600073ffffffffffffffffffffffffffffffffffffffff168273ffffffffffffffffffffffffffffffffffffffff161415611281576040517f08c379a000000000000000000000000000000000000000000000000000000000815260040161127890613598565b60405180910390fd5b61128c838383611ed2565b61129760008261104d565b6001600360008573ffffffffffffffffffffffffffffffffffffffff1673ffffffffffffffffffffffffffffffffffffffff16815260200190815260200160002060008282546112e791906135e7565b925050819055506001600360008473ffffffffffffffffffffffffffffffffffffffff1673ffffffffffffffffffffffffffffffffffffffff168152602001908152602001600020600082825461133e919061361b565b92505081905550816002600083815260200190815260200160002060006101000a81548173ffffffffffffffffffffffffffffffffffffffff021916908373ffffffffffffffffffffffffffffffffffffffff160217905550808273ffffffffffffffffffffffffffffffffffffffff168473ffffffffffffffffffffffffffffffffffffffff167fddf252ad1be2c89b69c2b068fc378daa952ba7f163c4a11628f55a4df523b3ef60405160405180910390a46113fd838383611ee2565b505050565b61140a611045565b73ffffffffffffffffffffffffffffffffffffffff16611428610956565b73ffffffffffffffffffffffffffffffffffffffff161461147e576040517f08c379a0000000000000000000000000000000000000000000000000000000008152600401611475906136bd565b60405180910390fd5b565b6000600b60009054906101000a900473ffffffffffffffffffffffffffffffffffffffff16905081600b60006101000a81548173ffffffffffffffffffffffffffffffffffffffff021916908373ffffffffffffffffffffffffffffffffffffffff1602179055508173ffffffffffffffffffffffffffffffffffffffff168173ffffffffffffffffffffffffffffffffffffffff167f8be0079c531659141344cd1fd0a4f28419497f9722a3daafe3b4186f6b6457e060405160405180910390a35050565b8173ffffffffffffffffffffffffffffffffffffffff168373ffffffffffffffffffffffffffffffffffffffff1614156115b5576040517f08c379a00000000000000000000000000000000000000000000000000000000081526004016115ac90613729565b60405180910390fd5b80600560008573ffffffffffffffffffffffffffffffffffffffff1673ffffffffffffffffffffffffffffffffffffffff16815260200190815260200160002060008473ffffffffffffffffffffffffffffffffffffffff1673ffffffffffffffffffffffffffffffffffffffff16815260200190815260200160002060006101000a81548160ff0219169083151502179055508173ffffffffffffffffffffffffffffffffffffffff168373ffffffffffffffffffffffffffffffffffffffff167f17307eab39ab6107e8899845ad3d59bd9653f200f220920489ca2b5937696c31836040516116a69190612700565b60405180910390a3505050565b6116be84848461119b565b6116ca84848484611ee7565b611709576040517f08c379a0000000000000000000000000000000000000000000000000000000008152600401611700906137bb565b60405180910390fd5b50505050565b606061171a82610ffa565b6000600a6000848152602001908152602001600020805461173a90612c75565b80601f016020809104026020016040519081016040528092919081815260200182805461176690612c75565b80156117b35780601f10611788576101008083540402835291602001916117b3565b820191906000526020600020905b81548152906001019060200180831161179657829003601f168201915b5050505050905060006117c461207e565b90506000815114156117da57819250505061181d565b60008251111561180f5780826040516020016117f79291906137db565b6040516020818303038152906040529250505061181d565b61181884612095565b925050505b919050565b6001816000016000828254019250508190555050565b600081600001549050919050565b6060818260405160200161185b9291906148eb565b6040516020818303038152906040529050919050565b606060008214156118b9576040518060400160405280600181526020017f300000000000000000000000000000000000000000000000000000000000000081525090506119cd565b600082905060005b600082146118eb5780806118d490614b8d565b915050600a826118e49190614bd6565b91506118c1565b60008167ffffffffffffffff81111561190757611906612a21565b5b6040519080825280601f01601f1916602001820160405280156119395781602001600182028036833780820191505090505b5090505b600085146119c65760018261195291906135e7565b9150600a85611961919061312a565b603061196d919061361b565b60f81b81838151811061198357611982612f81565b5b60200101907effffffffffffffffffffffffffffffffffffffffffffffffffffffffffffff1916908160001a905350600a856119bf9190614bd6565b945061193d565b8093505050505b919050565b60606000825114156119f557604051806020016040528060008152509050611b31565b6000604051806060016040528060408152602001614ede6040913990506000600360028551611a24919061361b565b611a2e9190614bd6565b6004611a3a9190614c07565b67ffffffffffffffff811115611a5357611a52612a21565b5b6040519080825280601f01601f191660200182016040528015611a855781602001600182028036833780820191505090505b509050600182016020820185865187015b80821015611af1576003820191508151603f8160121c168501518453600184019350603f81600c1c168501518453600184019350603f8160061c168501518453600184019350603f8116850151845360018401935050611a96565b5050600386510660018114611b0d5760028114611b2057611b28565b603d6001830353603d6002830353611b28565b603d60018303535b50505080925050505b919050565b600073ffffffffffffffffffffffffffffffffffffffff168273ffffffffffffffffffffffffffffffffffffffff161415611ba6576040517f08c379a0000000000000000000000000000000000000000000000000000000008152600401611b9d90614cad565b60405180910390fd5b611baf81611e66565b15611bef576040517f08c379a0000000000000000000000000000000000000000000000000000000008152600401611be690614d19565b60405180910390fd5b611bfb60008383611ed2565b6001600360008473ffffffffffffffffffffffffffffffffffffffff1673ffffffffffffffffffffffffffffffffffffffff1681526020019081526020016000206000828254611c4b919061361b565b92505081905550816002600083815260200190815260200160002060006101000a81548173ffffffffffffffffffffffffffffffffffffffff021916908373ffffffffffffffffffffffffffffffffffffffff160217905550808273ffffffffffffffffffffffffffffffffffffffff16600073ffffffffffffffffffffffffffffffffffffffff167fddf252ad1be2c89b69c2b068fc378daa952ba7f163c4a11628f55a4df523b3ef60405160405180910390a4611d0c60008383611ee2565b5050565b611d1982611e66565b611d58576040517f08c379a0000000000000000000000000000000000000000000000000000000008152600401611d4f90614dab565b60405180910390fd5b80600a60008481526020019081526020016000209080519060200190611d7f9291906125a9565b505050565b60007f80ac58cd000000000000000000000000000000000000000000000000000000007bffffffffffffffffffffffffffffffffffffffffffffffffffffffff1916827bffffffffffffffffffffffffffffffffffffffffffffffffffffffff19161480611e4f57507f5b5e139f000000000000000000000000000000000000000000000000000000007bffffffffffffffffffffffffffffffffffffffffffffffffffffffff1916827bffffffffffffffffffffffffffffffffffffffffffffffffffffffff1916145b80611e5f5750611e5e826120fd565b5b9050919050565b60008073ffffffffffffffffffffffffffffffffffffffff166002600084815260200190815260200160002060009054906101000a900473ffffffffffffffffffffffffffffffffffffffff1673ffffffffffffffffffffffffffffffffffffffff1614159050919050565b611edd838383612167565b505050565b505050565b6000611f088473ffffffffffffffffffffffffffffffffffffffff1661227b565b15612071578373ffffffffffffffffffffffffffffffffffffffff1663150b7a02611f31611045565b8786866040518563ffffffff1660e01b8152600401611f539493929190614e20565b602060405180830381600087803b158015611f6d57600080fd5b505af1925050508015611f9e57506040513d601f19601f82011682018060405250810190611f9b9190614e81565b60015b612021573d8060008114611fce576040519150601f19603f3d011682016040523d82523d6000602084013e611fd3565b606091505b50600081511415612019576040517f08c379a0000000000000000000000000000000000000000000000000000000008152600401612010906137bb565b60405180910390fd5b805181602001fd5b63150b7a0260e01b7bffffffffffffffffffffffffffffffffffffffffffffffffffffffff1916817bffffffffffffffffffffffffffffffffffffffffffffffffffffffff191614915050612076565b600190505b949350505050565b606060405180602001604052806000815250905090565b60606120a082610ffa565b60006120aa61207e565b905060008151116120ca57604051806020016040528060008152506120f5565b806120d484611871565b6040516020016120e59291906137db565b6040516020818303038152906040525b915050919050565b60007f01ffc9a7000000000000000000000000000000000000000000000000000000007bffffffffffffffffffffffffffffffffffffffffffffffffffffffff1916827bffffffffffffffffffffffffffffffffffffffffffffffffffffffff1916149050919050565b61217283838361229e565b600073ffffffffffffffffffffffffffffffffffffffff168373ffffffffffffffffffffffffffffffffffffffff1614156121b5576121b0816122a3565b6121f4565b8173ffffffffffffffffffffffffffffffffffffffff168373ffffffffffffffffffffffffffffffffffffffff16146121f3576121f283826122ec565b5b5b600073ffffffffffffffffffffffffffffffffffffffff168273ffffffffffffffffffffffffffffffffffffffff1614156122375761223281612459565b612276565b8273ffffffffffffffffffffffffffffffffffffffff168273ffffffffffffffffffffffffffffffffffffffff161461227557612274828261252a565b5b5b505050565b6000808273ffffffffffffffffffffffffffffffffffffffff163b119050919050565b505050565b6008805490506009600083815260200190815260200160002081905550600881908060018154018082558091505060019003906000526020600020016000909190919091505550565b600060016122f98461088a565b61230391906135e7565b90506000600760008481526020019081526020016000205490508181146123e8576000600660008673ffffffffffffffffffffffffffffffffffffffff1673ffffffffffffffffffffffffffffffffffffffff168152602001908152602001600020600084815260200190815260200160002054905080600660008773ffffffffffffffffffffffffffffffffffffffff1673ffffffffffffffffffffffffffffffffffffffff168152602001908152602001600020600084815260200190815260200160002081905550816007600083815260200190815260200160002081905550505b6007600084815260200190815260200160002060009055600660008573ffffffffffffffffffffffffffffffffffffffff1673ffffffffffffffffffffffffffffffffffffffff16815260200190815260200160002060008381526020019081526020016000206000905550505050565b6000600160088054905061246d91906135e7565b905060006009600084815260200190815260200160002054905060006008838154811061249d5761249c612f81565b5b9060005260206000200154905080600883815481106124bf576124be612f81565b5b90600052602060002001819055508160096000838152602001908152602001600020819055506009600085815260200190815260200160002060009055600880548061250e5761250d614eae565b5b6001900381819060005260206000200160009055905550505050565b60006125358361088a565b905081600660008573ffffffffffffffffffffffffffffffffffffffff1673ffffffffffffffffffffffffffffffffffffffff168152602001908152602001600020600083815260200190815260200160002081905550806007600084815260200190815260200160002081905550505050565b8280546125b590612c75565b90600052602060002090601f0160209004810192826125d7576000855561261e565b82601f106125f057805160ff191683800117855561261e565b8280016001018555821561261e579182015b8281111561261d578251825591602001919060010190612602565b5b50905061262b919061262f565b5090565b5b80821115612648576000816000905550600101612630565b5090565b6000604051905090565b600080fd5b600080fd5b60007fffffffff0000000000000000000000000000000000000000000000000000000082169050919050565b61269581612660565b81146126a057600080fd5b50565b6000813590506126b28161268c565b92915050565b6000602082840312156126ce576126cd612656565b5b60006126dc848285016126a3565b91505092915050565b60008115159050919050565b6126fa816126e5565b82525050565b600060208201905061271560008301846126f1565b92915050565b600081519050919050565b600082825260208201905092915050565b60005b8381101561275557808201518184015260208101905061273a565b83811115612764576000848401525b50505050565b6000601f19601f8301169050919050565b60006127868261271b565b6127908185612726565b93506127a0818560208601612737565b6127a98161276a565b840191505092915050565b600060208201905081810360008301526127ce818461277b565b905092915050565b6000819050919050565b6127e9816127d6565b81146127f457600080fd5b50565b600081359050612806816127e0565b92915050565b60006020828403121561282257612821612656565b5b6000612830848285016127f7565b91505092915050565b600073ffffffffffffffffffffffffffffffffffffffff82169050919050565b600061286482612839565b9050919050565b61287481612859565b82525050565b600060208201905061288f600083018461286b565b92915050565b61289e81612859565b81146128a957600080fd5b50565b6000813590506128bb81612895565b92915050565b600080604083850312156128d8576128d7612656565b5b60006128e6858286016128ac565b92505060206128f7858286016127f7565b9150509250929050565b61290a816127d6565b82525050565b60006020820190506129256000830184612901565b92915050565b60008060006060848603121561294457612943612656565b5b6000612952868287016128ac565b9350506020612963868287016128ac565b9250506040612974868287016127f7565b9150509250925092565b60006020828403121561299457612993612656565b5b60006129a2848285016128ac565b91505092915050565b6129b4816126e5565b81146129bf57600080fd5b50565b6000813590506129d1816129ab565b92915050565b600080604083850312156129ee576129ed612656565b5b60006129fc858286016128ac565b9250506020612a0d858286016129c2565b9150509250929050565b600080fd5b600080fd5b7f4e487b7100000000000000000000000000000000000000000000000000000000600052604160045260246000fd5b612a598261276a565b810181811067ffffffffffffffff82111715612a7857612a77612a21565b5b80604052505050565b6000612a8b61264c565b9050612a978282612a50565b919050565b600067ffffffffffffffff821115612ab757612ab6612a21565b5b612ac08261276a565b9050602081019050919050565b82818337600083830152505050565b6000612aef612aea84612a9c565b612a81565b905082815260208101848484011115612b0b57612b0a612a1c565b5b612b16848285612acd565b509392505050565b600082601f830112612b3357612b32612a17565b5b8135612b43848260208601612adc565b91505092915050565b60008060008060808587031215612b6657612b65612656565b5b6000612b74878288016128ac565b9450506020612b85878288016128ac565b9350506040612b96878288016127f7565b925050606085013567ffffffffffffffff811115612bb757612bb661265b565b5b612bc387828801612b1e565b91505092959194509250565b60006040820190508181036000830152612be9818561277b565b90508181036020830152612bfd818461277b565b90509392505050565b60008060408385031215612c1d57612c1c612656565b5b6000612c2b858286016128ac565b9250506020612c3c858286016128ac565b9150509250929050565b7f4e487b7100000000000000000000000000000000000000000000000000000000600052602260045260246000fd5b60006002820490506001821680612c8d57607f821691505b60208210811415612ca157612ca0612c46565b5b50919050565b7f4552433732313a20617070726f76616c20746f2063757272656e74206f776e6560008201527f7200000000000000000000000000000000000000000000000000000000000000602082015250565b6000612d03602183612726565b9150612d0e82612ca7565b604082019050919050565b60006020820190508181036000830152612d3281612cf6565b9050919050565b7f4552433732313a20617070726f76652063616c6c6572206973206e6f7420746f60008201527f6b656e206f776e6572206e6f7220617070726f76656420666f7220616c6c0000602082015250565b6000612d95603e83612726565b9150612da082612d39565b604082019050919050565b60006020820190508181036000830152612dc481612d88565b9050919050565b7f4552433732313a2063616c6c6572206973206e6f7420746f6b656e206f776e6560008201527f72206e6f7220617070726f766564000000000000000000000000000000000000602082015250565b6000612e27602e83612726565b9150612e3282612dcb565b604082019050919050565b60006020820190508181036000830152612e5681612e1a565b9050919050565b7f455243373231456e756d657261626c653a206f776e657220696e646578206f7560008201527f74206f6620626f756e6473000000000000000000000000000000000000000000602082015250565b6000612eb9602b83612726565b9150612ec482612e5d565b604082019050919050565b60006020820190508181036000830152612ee881612eac565b9050919050565b7f455243373231456e756d657261626c653a20676c6f62616c20696e646578206f60008201527f7574206f6620626f756e64730000000000000000000000000000000000000000602082015250565b6000612f4b602c83612726565b9150612f5682612eef565b604082019050919050565b60006020820190508181036000830152612f7a81612f3e565b9050919050565b7f4e487b7100000000000000000000000000000000000000000000000000000000600052603260045260246000fd5b7f4552433732313a20696e76616c696420746f6b656e2049440000000000000000600082015250565b6000612fe6601883612726565b9150612ff182612fb0565b602082019050919050565b6000602082019050818103600083015261301581612fd9565b9050919050565b7f4552433732313a2061646472657373207a65726f206973206e6f74206120766160008201527f6c6964206f776e65720000000000000000000000000000000000000000000000602082015250565b6000613078602983612726565b91506130838261301c565b604082019050919050565b600060208201905081810360008301526130a78161306b565b9050919050565b6000819050919050565b6130c96130c4826127d6565b6130ae565b82525050565b60006130db82856130b8565b6020820191506130eb82846130b8565b6020820191508190509392505050565b7f4e487b7100000000000000000000000000000000000000000000000000000000600052601260045260246000fd5b6000613135826127d6565b9150613140836127d6565b9250826131505761314f6130fb565b5b828206905092915050565b600081905092915050565b7f7b226e616d65223a202200000000000000000000000000000000000000000000600082015250565b600061319c600a8361315b565b91506131a782613166565b600a82019050919050565b7f46616e4e46542023200000000000000000000000000000000000000000000000600082015250565b60006131e860098361315b565b91506131f3826131b2565b600982019050919050565b60006132098261271b565b613213818561315b565b9350613223818560208601612737565b80840191505092915050565b7f222c20226465736372697074696f6e223a202246616e204e465473222c000000600082015250565b6000613265601d8361315b565b91506132708261322f565b601d82019050919050565b7f22696d616765223a2022646174613a696d6167652f7376672b786d6c3b62617360008201527f6536342c00000000000000000000000000000000000000000000000000000000602082015250565b60006132d760248361315b565b91506132e28261327b565b602482019050919050565b7f227d000000000000000000000000000000000000000000000000000000000000600082015250565b600061332360028361315b565b915061332e826132ed565b600282019050919050565b60006133448261318f565b915061334f826131db565b915061335b82856131fe565b915061336682613258565b9150613371826132ca565b915061337d82846131fe565b915061338882613316565b91508190509392505050565b7f646174613a6170706c69636174696f6e2f6a736f6e3b6261736536342c000000600082015250565b60006133ca601d8361315b565b91506133d582613394565b601d82019050919050565b60006133eb826133bd565b91506133f782846131fe565b915081905092915050565b7f4f776e61626c653a206e6577206f776e657220697320746865207a65726f206160008201527f6464726573730000000000000000000000000000000000000000000000000000602082015250565b600061345e602683612726565b915061346982613402565b604082019050919050565b6000602082019050818103600083015261348d81613451565b9050919050565b7f4552433732313a207472616e736665722066726f6d20696e636f72726563742060008201527f6f776e6572000000000000000000000000000000000000000000000000000000602082015250565b60006134f0602583612726565b91506134fb82613494565b604082019050919050565b6000602082019050818103600083015261351f816134e3565b9050919050565b7f4552433732313a207472616e7366657220746f20746865207a65726f2061646460008201527f7265737300000000000000000000000000000000000000000000000000000000602082015250565b6000613582602483612726565b915061358d82613526565b604082019050919050565b600060208201905081810360008301526135b181613575565b9050919050565b7f4e487b7100000000000000000000000000000000000000000000000000000000600052601160045260246000fd5b60006135f2826127d6565b91506135fd836127d6565b9250828210156136105761360f6135b8565b5b828203905092915050565b6000613626826127d6565b9150613631836127d6565b9250827fffffffffffffffffffffffffffffffffffffffffffffffffffffffffffffffff03821115613666576136656135b8565b5b828201905092915050565b7f4f776e61626c653a2063616c6c6572206973206e6f7420746865206f776e6572600082015250565b60006136a7602083612726565b91506136b282613671565b602082019050919050565b600060208201905081810360008301526136d68161369a565b9050919050565b7f4552433732313a20617070726f766520746f2063616c6c657200000000000000600082015250565b6000613713601983612726565b915061371e826136dd565b602082019050919050565b6000602082019050818103600083015261374281613706565b9050919050565b7f4552433732313a207472616e7366657220746f206e6f6e20455243373231526560008201527f63656976657220696d706c656d656e7465720000000000000000000000000000602082015250565b60006137a5603283612726565b91506137b082613749565b604082019050919050565b600060208201905081810360008301526137d481613798565b9050919050565b60006137e782856131fe565b91506137f382846131fe565b91508190509392505050565b7f3c7376672076657273696f6e3d22312e312220786d6c6e733d22687474703a2f60008201527f2f7777772e77332e6f72672f323030302f7376672220786d6c6e733a786c696e60208201527f6b3d22687474703a2f2f7777772e77332e6f72672f313939392f786c696e6b2260408201527f20783d223070782220793d22307078222076696577426f783d2230203020383460608201527f312e39203539352e3322207374796c653d22656e61626c652d6261636b67726f60808201527f756e643a6e657720302030203834312e39203539352e333b2220786d6c3a737060a08201527f6163653d227072657365727665223e000000000000000000000000000000000060c082015250565b600061391960cf8361315b565b9150613924826137ff565b60cf82019050919050565b7f3c7374796c6520747970653d22746578742f637373223e000000000000000000600082015250565b600061396560178361315b565b91506139708261392f565b601782019050919050565b7f2e7374307b66696c6c3a00000000000000000000000000000000000000000000600082015250565b60006139b1600a8361315b565b91506139bc8261397b565b600a82019050919050565b7f3b7374726f6b653a233232323b7374726f6b652d77696474683a313b7d000000600082015250565b60006139fd601d8361315b565b9150613a08826139c7565b601d82019050919050565b7f2e7374317b66696c6c3a00000000000000000000000000000000000000000000600082015250565b6000613a49600a8361315b565b9150613a5482613a13565b600a82019050919050565b7f2e7374327b66696c6c3a234645434535433b7d00000000000000000000000000600082015250565b6000613a9560138361315b565b9150613aa082613a5f565b601382019050919050565b7f2e6b616e616d65207b7472616e73666f726d2d6f726967696e3a3431392e357060008201527f782035323170783b7d0000000000000000000000000000000000000000000000602082015250565b6000613b0760298361315b565b9150613b1282613aab565b602982019050919050565b7f2e6f756769207b616e696d6174696f6e3a6f756769203473206c696e6561722060008201527f616c7465726e61746520696e66696e6974653b7d000000000000000000000000602082015250565b6000613b7960348361315b565b9150613b8482613b1d565b603482019050919050565b7f406b65796672616d6573206f756769207b66726f6d207b7472616e73666f726d60008201527f3a7363616c65582830293b7d7d00000000000000000000000000000000000000602082015250565b6000613beb602d8361315b565b9150613bf682613b8f565b602d82019050919050565b7f2e736574207b616e696d6174696f6e3a736574203473206c696e65617220616c60008201527f7465726e61746520696e66696e6974653b7d0000000000000000000000000000602082015250565b6000613c5d60328361315b565b9150613c6882613c01565b603282019050919050565b7f406b65796672616d657320736574207b66726f6d207b7472616e73666f726d3a60008201527f726f746174652830646567293b7d7d0000000000000000000000000000000000602082015250565b6000613ccf602f8361315b565b9150613cda82613c73565b602f82019050919050565b7f23636f707932207b7472616e73666f726d3a726f74617465282d36306465672960008201527f3b7d000000000000000000000000000000000000000000000000000000000000602082015250565b6000613d4160228361315b565b9150613d4c82613ce5565b602282019050919050565b7f23636f707931207b7472616e73666f726d3a726f74617465282d33306465672960008201527f3b7d000000000000000000000000000000000000000000000000000000000000602082015250565b6000613db360228361315b565b9150613dbe82613d57565b602282019050919050565b7f23636f707933207b7472616e73666f726d3a726f74617465283330646567293b60008201527f7d00000000000000000000000000000000000000000000000000000000000000602082015250565b6000613e2560218361315b565b9150613e3082613dc9565b602182019050919050565b7f23636f707934207b7472616e73666f726d3a726f74617465283630646567293b60008201527f7d00000000000000000000000000000000000000000000000000000000000000602082015250565b6000613e9760218361315b565b9150613ea282613e3b565b602182019050919050565b7f236c617965725f32207b7472616e73666f726d2d6f726967696e3a63656e746560008201527f723b7472616e73666f726d3a7363616c6528302e39293b7d0000000000000000602082015250565b6000613f0960388361315b565b9150613f1482613ead565b603882019050919050565b7f236f79615f757369726f207b7472616e73666f726d3a726f74617465282d373560008201527f646567293b7d0000000000000000000000000000000000000000000000000000602082015250565b6000613f7b60268361315b565b9150613f8682613f1f565b602682019050919050565b7f236f79615f6d6165207b7472616e73666f726d3a726f7461746528373564656760008201527f293b7d0000000000000000000000000000000000000000000000000000000000602082015250565b6000613fed60238361315b565b9150613ff882613f91565b602382019050919050565b7f3c2f7374796c653e000000000000000000000000000000000000000000000000600082015250565b600061403960088361315b565b915061404482614003565b600882019050919050565b7f3c672069643d226c617965725f31223e00000000000000000000000000000000600082015250565b600061408560108361315b565b91506140908261404f565b601082019050919050565b7f3c726563742077696474683d223834312e3922206865696768743d223539352e60008201527f33222066696c6c203d202223666666222f3e0000000000000000000000000000602082015250565b60006140f760328361315b565b91506141028261409b565b603282019050919050565b7f3c2f673e00000000000000000000000000000000000000000000000000000000600082015250565b600061414360048361315b565b915061414e8261410d565b600482019050919050565b7f3c672069643d226c617965725f32223e00000000000000000000000000000000600082015250565b600061418f60108361315b565b915061419a82614159565b601082019050919050565b7f3c70617468206964203d20226f79615f757369726f2220636c6173733d22737460008201527f32206b616e616d65207365742220643d224d3432362e392c3535332e35682d3160208201527f342e37632d342e312c302d372e352d332e342d372e352d372e355635322e396360408201527f302d342e312c332e342d372e352c372e352d372e356831342e3763342e312c3060608201527f2c372e352c332e342c372e352c372e3556353436000000000000000000000000608082015250565b600061427360948361315b565b915061427e826141a5565b609482019050919050565b7f433433342e342c3535302e322c3433312c3535332e352c3432362e392c35353360008201527f2e357a222f3e0000000000000000000000000000000000000000000000000000602082015250565b60006142e560268361315b565b91506142f082614289565b602682019050919050565b7f3c67206964203d2022636f7079322220636c617373203d20226b616e616d652060008201527f736574223e000000000000000000000000000000000000000000000000000000602082015250565b600061435760258361315b565b9150614362826142fb565b602582019050919050565b7f3c7061746820636c6173733d22737432206b616e616d652220643d224d34323660008201527f2e392c3535332e35682d31342e37632d342e312c302d372e352d332e342d372e60208201527f352d372e355635322e3963302d342e312c332e342d372e352c372e352d372e3560408201527f6831342e3763342e312c302c372e352c332e342c372e352c372e355635343600606082015250565b6000614415607f8361315b565b91506144208261436d565b607f82019050919050565b7f3c706f6c79676f6e20636c6173733d22737430206b616e616d65206f7567692260008201527f20706f696e74733d223431392e352c34362e38203534322e332c36332034363460208201527f2c333535203431392e352c3334392e37222f3e00000000000000000000000000604082015250565b60006144ad60538361315b565b91506144b88261442b565b605382019050919050565b7f3c706f6c79676f6e20636c6173733d22737431206b616e616d65206f7567692260008201527f20706f696e74733d223239362e382c3633203431392e352c34362e382034313960208201527f2e352c3334392e37203337352e312c333535222f3e0000000000000000000000604082015250565b600061454560558361315b565b9150614550826144c3565b605582019050919050565b7f3c67206964203d2022636f7079312220636c617373203d20226b616e616d652060008201527f736574223e3c7061746820636c6173733d22737432206b616e616d652220643d60208201527f224d3432362e392c3535332e35682d31342e37632d342e312c302d372e352d3360408201527f2e342d372e352d372e355635322e3963302d342e312c332e342d372e352c372e60608201527f352d372e356831342e3763342e312c302c372e352c332e342c372e352c372e3560808201527f563534360000000000000000000000000000000000000000000000000000000060a082015250565b600061464f60a48361315b565b915061465a8261455b565b60a482019050919050565b7f3c67206964203d2022636f7079332220636c617373203d20226b616e616d652060008201527f736574223e000000000000000000000000000000000000000000000000000000602082015250565b60006146c160258361315b565b91506146cc82614665565b602582019050919050565b7f3c67206964203d2022636f7079342220636c617373203d20226b616e616d652060008201527f736574223e000000000000000000000000000000000000000000000000000000602082015250565b600061473360258361315b565b915061473e826146d7565b602582019050919050565b7f3c70617468206964203d20226f79615f6d61652220636c6173733d227374322060008201527f6b616e616d65207365742220643d224d3432362e392c3535332e35682d31342e60208201527f37632d342e312c302d372e352d332e342d372e352d372e355635322e3963302d60408201527f342e312c332e342d372e352c372e352d372e356831342e3763342e312c302c3760608201527f2e352c332e342c372e352c372e35563534360000000000000000000000000000608082015250565b600061481760928361315b565b915061482282614749565b609282019050919050565b7f3c636972636c652063783d223431392e35222063793d223532312220723d223160008201527f312e32222f3e0000000000000000000000000000000000000000000000000000602082015250565b600061488960268361315b565b91506148948261482d565b602682019050919050565b7f3c2f7376673e0000000000000000000000000000000000000000000000000000600082015250565b60006148d560068361315b565b91506148e08261489f565b600682019050919050565b60006148f68261390c565b915061490182613958565b915061490c826139a4565b915061491882856131fe565b9150614923826139f0565b915061492e82613a3c565b915061493a82846131fe565b9150614945826139f0565b915061495082613a88565b915061495b82613afa565b915061496682613b6c565b915061497182613bde565b915061497c82613c50565b915061498782613cc2565b915061499282613d34565b915061499d82613da6565b91506149a882613e18565b91506149b382613e8a565b91506149be82613efc565b91506149c982613f6e565b91506149d482613fe0565b91506149df8261402c565b91506149ea82614078565b91506149f5826140ea565b9150614a0082614136565b9150614a0b82614182565b9150614a1682614266565b9150614a21826142d8565b9150614a2c8261434a565b9150614a3782614408565b9150614a42826142d8565b9150614a4d826144a0565b9150614a5882614538565b9150614a6382614136565b9150614a6e82614642565b9150614a79826142d8565b9150614a84826144a0565b9150614a8f82614538565b9150614a9a82614136565b9150614aa582614408565b9150614ab0826142d8565b9150614abb826144a0565b9150614ac682614538565b9150614ad1826146b4565b9150614adc82614408565b9150614ae7826142d8565b9150614af2826144a0565b9150614afd82614538565b9150614b0882614136565b9150614b1382614726565b9150614b1e82614408565b9150614b29826142d8565b9150614b34826144a0565b9150614b3f82614538565b9150614b4a82614136565b9150614b558261480a565b9150614b60826142d8565b9150614b6b8261487c565b9150614b7682614136565b9150614b81826148c8565b91508190509392505050565b6000614b98826127d6565b91507fffffffffffffffffffffffffffffffffffffffffffffffffffffffffffffffff821415614bcb57614bca6135b8565b5b600182019050919050565b6000614be1826127d6565b9150614bec836127d6565b925082614bfc57614bfb6130fb565b5b828204905092915050565b6000614c12826127d6565b9150614c1d836127d6565b9250817fffffffffffffffffffffffffffffffffffffffffffffffffffffffffffffffff0483118215151615614c5657614c556135b8565b5b828202905092915050565b7f4552433732313a206d696e7420746f20746865207a65726f2061646472657373600082015250565b6000614c97602083612726565b9150614ca282614c61565b602082019050919050565b60006020820190508181036000830152614cc681614c8a565b9050919050565b7f4552433732313a20746f6b656e20616c7265616479206d696e74656400000000600082015250565b6000614d03601c83612726565b9150614d0e82614ccd565b602082019050919050565b60006020820190508181036000830152614d3281614cf6565b9050919050565b7f45524337323155524953746f726167653a2055524920736574206f66206e6f6e60008201527f6578697374656e7420746f6b656e000000000000000000000000000000000000602082015250565b6000614d95602e83612726565b9150614da082614d39565b604082019050919050565b60006020820190508181036000830152614dc481614d88565b9050919050565b600081519050919050565b600082825260208201905092915050565b6000614df282614dcb565b614dfc8185614dd6565b9350614e0c818560208601612737565b614e158161276a565b840191505092915050565b6000608082019050614e35600083018761286b565b614e42602083018661286b565b614e4f6040830185612901565b8181036060830152614e618184614de7565b905095945050505050565b600081519050614e7b8161268c565b92915050565b600060208284031215614e9757614e96612656565b5b6000614ea584828501614e6c565b91505092915050565b7f4e487b7100000000000000000000000000000000000000000000000000000000600052603160045260246000fdfe4142434445464748494a4b4c4d4e4f505152535455565758595a6162636465666768696a6b6c6d6e6f707172737475767778797a303132333435363738392b2fa264697066735822122088f757b2a3e5bc075efcbd8f7eb714ca0ebcec9de5d3ec09f0adb3045c6fae8064736f6c63430008090033",
  "linkReferences": {},
  "deployedLinkReferences": {}
}